:020000040800F2
:10000000E0060020290200080F0E0008DD0D0008A0
:100010000D0E00081F0400080D100008000000006D
:10002000000000000000000000000000610F000858
:100030002104000800000000110E0008630F0008F2
:10004000430200084302000843020008430200087C
:10005000430200084302000843020008430200086C
:10006000430200084302000843020008430200085C
:10007000430200084302000843020008430200084C
:10008000430200084302000843020008430200083C
:10009000430200084302000843020008430200082C
:1000A000430200084302000843020008430200081C
:1000B000430200084302000843020008430200080C
:1000C00043020008430200084302000843020008FC
:1000D00043020008430200084302000843020008EC
:1000E00043020008430200084302000843020008DC
:1000F00043020008430200084302000843020008CC
:1001000043020008430200084302000843020008BB
:1001100043020008430200084302000843020008AB
:10012000430200084302000843020008430200089B
:100130004302000800000000000000004302000825
:10014000430200084302000843020008430200087B
:10015000430200084302000843020008430200086B
:10016000430200084302000843020008430200085B
:1001700043020008430200080000000000000000E5
:10018000430200084302000800F002F800F03CF8C7
:100190000AA090E8000C82448344AAF10107DA45E2
:1001A00001D100F031F8AFF2090EBAE80F0013F0F8
:1001B000010F18BFFB1A43F001031847C00E0000DF
:1001C000E00E0000103A24BF78C878C1FAD8520770
:1001D00024BF30C830C144BF04680C6070470000C1
:1001E0000023002400250026103A28BF78C1FBD840
:1001F000520728BF30C148BF0B6070471FB500F0E1
:100200002FFF1FBD10B510BD00F0CFF81146FFF74E
:10021000F5FF00F00DFF00F0EDF803B4FFF7F2FF7B
:1002200003BC00F0F5F80000094880470948004782
:10023000FEE7FEE7FEE7FEE7FEE7FEE7FEE7FEE796
:10024000FEE7FEE704480549054A064B70470000F3
:10025000FD0F000889010008E0000020E0060020F2
:10026000E0020020E002002053EA020C00F0698066
:100270002DE9F04B4FF00006002B1FBFB3FA83F5BA
:1002800003FA05F424FA05F65E4012BF1643B2FAEB
:1002900082F502FA05F4C5F120051EBF22FA05FC1D
:1002A00044EA0C04203556EA044C4FEA144418BFC3
:1002B000641C4FF000084FF00009904271EB030CF2
:1002C00039D3002919BFB1FA81F701FA07F6B0FA5C
:1002D00080F700FA07F6C7F120071EBF20FA07FCD7
:1002E00046EA0C062037B6FBF4FCA7EB0507103FE7
:1002F00007F01F0BCBF120060CFA0BFB2CFA06F6CD
:1003000044BFB3460026202FA4BF5E464FF0000B2B
:100310005BEA060C08BF4FF0010B19EB0B09ABFBB6
:10032000027C48EB0608C01B06FB02CC0BFB03CC8F
:1003300071EB0C01C1E70B46024641464846BDE859
:10034000F08B13B54FF000004FF00001AFF30080C9
:10035000BDE81C4070474FF0000200B513469446BC
:100360009646203922BFA0E80C50A0E80C50B1F10D
:100370002001BFF4F7AF090728BFA0E80C5048BF21
:100380000CC05DF804EB890028BF40F8042B08BFBF
:10039000704748BF20F8022B11F0804F18BF00F8BB
:1003A000012B7047704770477047754600F02CF876
:1003B000AE4605006946534620F00700854618B052
:1003C00020B5FFF73FFFBDE820404FF000064FF09B
:1003D00000074FF000084FF0000B21F00701AC467A
:1003E000ACE8C009ACE8C009ACE8C009ACE8C00999
:1003F0008D46704710B50446AFF300802046BDE837
:100400001040FFF70ABF000000487047800000203E
:1004100001491820ABBEFEE7260002007047FEE748
:1004200070470000002229B101291AD002291BD0EF
:100430004FF440720E490B6823F440730B600B6855
:1004400013430B600A6822F0F8020A600A6802236C
:1004500003EBC00002430A60086840F48030086083
:1004600070474FF48072E5E74FF40072E2E7000056
:10047000103C02401348016889050FD5016821F43A
:1004800000710160016841F400610160016821F4BC
:1004900000610160016841F4007101600168490573
:1004A0000FD5016821F480610160016841F4805139
:1004B0000160016821F480510160016841F48061AC
:1004C00001607047003C024008490A6822F440720B
:1004D0000A600A6842F004020A600A684FF4803336
:1004E00043EA002002430A6070470000103C0240CB
:1004F000064A136823F4407313601368136013688B
:1005000043F001031360017070470000103C02408B
:10051000094910B50C6824F440740C600C6844F46C
:1005200040740C600C6844F001040C600260BFF37E
:100530006F8F436010BD0000103C0240074A1368F3
:1005400023F440731360136843F4807313601368DB
:1005500043F001031360018070470000103C02402B
:10056000074A136823F440731360136843F400735D
:100570001360136843F001031360016070470000CB
:10058000103C024017490868C206174805D5C269E1
:1005900042F01002C26110220A600A68920605D574
:1005A000C26942F00802C26120220A600A6852064B
:1005B00005D5C26942F00402C26140220A600A689D
:1005C000120605D5C26942F00202C26180220A60A9
:1005D0000A68920705D5C26942F02002C261022072
:1005E000086070470C3C02406000002070B5114963
:1005F00004460020C86100F0CBF806460E4D09E025
:10060000601C07D024B100F0C3F8801BA04201D9C0
:10061000032070BD2868C003F2D42868C00701D049
:1006200001202860286810F0F200F2D0FFF7AAFF3E
:10063000012070BD600000200C3C02402DE9F04715
:10064000044622480F46017E01290AD00121804636
:1006500001764CF250394846FFF7C8FF020003D03C
:100660002FE00220BDE8F0874FF0FF3038602068AF
:10067000174D012801D0A6681CE0207C6168FFF7B7
:1006800023FF4846FFF7B2FF0246286820F0040027
:10069000286014E0217C3046FFF7C4FE4846FFF78F
:1006A000A5FF0200286820F0FA00286001D03E6013
:1006B00005E0761CD4E902100844B042EAD8FFF7FE
:1006C000D9FE002188F818101046CBE76000002002
:1006D000103C02400348016841F0004101600020E5
:1006E00070470000103C02402DE9F0471B4E0546C4
:1006F0001446307E1F468946012808D001203076F6
:100700004CF250384046FFF771FF18B114E0022058
:10071000BDE8F0879DB1012D16D0022D19D02246DB
:100720003B464846FFF7F4FE4046FFF75FFF0C49A3
:100730000A6822F001020A6000213176E8E7E1B29E
:100740004846FFF7D5FEEFE7A1B24846FFF7F6FEB1
:10075000EAE721464846FFF703FFE5E7600000208F
:10076000103C0240074900200A68002A09DA054ABD
:10077000054B0C3A1360054B13600968002900DA39
:1007800001207047103C024023016745AB89EFCD43
:1007900001488068704700002800002002488168F6
:1007A0000278114481607047280000200B4810B582
:1007B000016841F400710160016841F480610160E9
:1007C000016841F480710160032000F061F80F209E
:1007D00000F006F800F024F8002010BD003C0240B4
:1007E00070B50D4D04464FF47A712878B1FBF0F0E6
:1007F0000A490968B1FBF0F000F0DCFA48B9102CA6
:1008000007D200222146501E00F022F800206C6022
:1008100070BD012070BD00002800002034000020C1
:100820000A4808B5016841F480410160006800F49D
:10083000804000900548001F016841F08051016030
:10084000006800F08050009008BD0000443802406D
:10085000F0B40E4B1B680C46C3F30223C3F107052B
:10086000042D00D90425191D072901D2002300E019
:10087000DB1E012606FA05F1491E214099409E40E3
:10088000761E16403143F0BC00F0C1BB0CED00E019
:10089000064900F0070208684FF6FF03184040EAD7
:1008A0000220034A10430860704700000CED00E08E
:1008B0000000FA052DE9F0470E46050065D0DFF887
:1008C0001481D8F80000F7B200F00700B04207D258
:1008D00088F80070D8F8000000F00700B04254D14A
:1008E00028683D4C810712D5400703D5206840F4A5
:1008F000E05020602878000703D5206840F460406D
:1009000020602068A96820F0F00008432060287863
:10091000C0072DD0304968680839012812D0022854
:1009200013D0032811D00968890700292DDA21681E
:1009300021F0030101432160FFF72AFF814641F2C4
:10094000883A0EE009688903EFE709688901ECE756
:10095000FFF71EFFA0EB0901514502D90320BDE8B6
:10096000F0872068696800F00C00B0EB810FEFD1D0
:10097000D8F80010404601F00701B14207D90770CE
:10098000006800F00700B04201D00120E7E72878B6
:10099000400705D52068E96820F4E050084320604E
:1009A0002878000706D52068296920F4604040EACD
:1009B000C100206000F018F82168084AC1F3031153
:1009C000515CC8400649086006480068FFF708FF08
:1009D0000020C4E7003C0240083802406A100008CA
:1009E000340000202C000020154810B5006810F0DD
:1009F0000C02144813D04110042A0FD0082A0ED13B
:100A00000F4C241F2268236802F03F025B0207D5C7
:100A10002068C0F38810A0FB010106E0084610BD65
:100A20002168C1F38811A1FB00010023FFF71CFC22
:100A30002168C1F30141491C4900B0FBF1F010BD30
:100A4000083802400024F4002DE9F84F04006ED06D
:100A50002078DFF84C93C007A9F104054AD009F1CA
:100A600004000168C1F38101012908D00068C0F3C6
:100A7000810002280AD1D9F80000400206D5286872
:100A8000800337D560680028E1D033E06068B0F5B6
:100A9000803F10D0B0F5A02F286810D020F480300F
:100AA0002860286820F4802028606068A8B1FFF7DB
:100AB0006FFE06460DE0286840F48030F4E740F40D
:100AC00080202860F7E700BFFFF762FE801B6428E4
:100AD00073D828688003F7D50CE0FFF759FE064667
:100AE00005E000BFFFF754FE801B6428F0D828689B
:100AF0008003F7D42078DFF8AC8280074FF0000A3B
:100B00003ED5A748001D016811F00C0F08D0006801
:100B1000C0F3810002280BD1D9F80000400207D4AD
:100B20002868800716D5E068012800D112E033E17B
:100B3000E068B8B10120C8F80000FFF729FE0646BA
:100B400005E000BFFFF724FE801B0228C0D82868FC
:100B50008007F7D52868216920F0F80040EAC10035
:100B600028600DE0C8F800A0FFF712FE064604E07A
:100B7000FFF70EFE801B02281FD828688007F7D4D5
:100B80002078000722D5864F87486169703771B198
:100B900001210160FFF7FCFD064604E0FFF7F8FDC8
:100BA000801B022809D838688007F7D50EE0C0F806
:100BB00000A0FFF7EDFD064605E082E0FFF7E8FD47
:100BC000801B02287DD838688007F7D4207840073A
:100BD00068D5DFF8CCB100270BF13C0BDBF8000047
:100BE000C0000BD4DBF8001041F08051CBF80010AE
:100BF000DBF80000012700F0805000906B4E306859
:100C0000C00510D4306840F480703060FFF7C0FD3C
:100C1000009005E0FFF7BCFD0099401A022850D86B
:100C20003068C005F6D55E4EA0686C3601280FD03E
:100C30000528306810D020F001003060306820F0C6
:100C400004003060A068B8B1FFF7A2FD00900FE08B
:100C5000306840F00100F4E740F004003060F7E74E
:100C6000FFF796FD0099411A41F28830814266D81B
:100C700030688007F4D50EE0FFF78AFD009007E0AA
:100C8000FFF786FD0099411A41F28830814256D81B
:100C900030688007F4D42FB1DBF8001021F08051C8
:100CA000CBF80010A069C8B33D49091D0968C1F31C
:100CB000810102294AD00228504607D0C8F86000B6
:100CC00000E03CE0FFF764FD04463BE04746C8F81F
:100CD0006000FFF75DFD064605E000BFFFF758FD29
:100CE000801B02282BD828688001F7D4D4E907019B
:100CF0000843A16A2E4A490802EB0141626A41EAAF
:100D00008211084394F82C1040EA0161C9F80010E0
:100D100001203866FFF73CFD044606E03EE000BFD8
:100D2000FFF736FD001B022809D828688001F7D597
:100D300034E000BFFFF72CFD001B022802D903207E
:100D4000BDE8F88F28688001F4D427E00128F7D0A7
:100D5000D9F80000E26900F4800191421CD1226AB6
:100D600000F03F01914217D147F6C071626A01401D
:100D7000B1EB821F10D1A26A4FF0FF3300F4403173
:100D800003EB5202B1EB024F06D194F82C1000F0A5
:100D90007060B0EB016F01D00120D1E70020CFE7F8
:100DA0000438024000004742800E47420070004075
:100DB0000000FFFF10B5401EB0F1807F01D301207D
:100DC00010BD4FF0E02460610F21601700F01FF9A3
:100DD0000020A06107202061002010BDFEE7000078
:100DE000094808B5016841F080010160016801F01F
:100DF00080010091016841F001010160006800F08C
:100E00000100009008BD000030380240FEE7FEE718
:100E1000704700001C49884201D2002070471B49DE
:100E2000884201D2012070471949884201D202202C
:100E300070471849884201D20320704716498842FA
:100E400001D2042070471549884201D2052070471D
:100E50001349884201D2062070471249884201D2C4
:100E6000072070471049884201D2082070470F4977
:100E7000884201D2092070470D49884201D20A20D8
:100E800070470B20704700000040000800800008F9
:100E900000C000080000010800000208000004086B
:100EA000000006080000080800000A0800000C08FE
:100EB00000000E0810B5002303E010C841F82340DD
:100EC0005B1C9342F9D310BD2DE9F04F87B04FF072
:100ED000000817460E460446CDF81480B0F1006FA6
:100EE00038D3A00736D1FFF73DFC1C48254604EB5C
:100EF00087074CF25039844215D24FF0010A4FF067
:100F0000020BBD420FD22868401C11D02846CDF8F4
:100F10000080FFF77FFF02AA05A982E8010C68465E
:100F2000FFF78CFB28B14846FFF760FB70B10FE07C
:100F30002D1D4846FFF75AFBE3E700232146022018
:100F40003268FFF7D1FB18B9241D361DBC42F4D31B
:100F5000FFF7C0FB07B0BDE8F08F000000100C08E1
:100F60007047FFF71BBC000030B593B030216846D6
:100F7000FFF7F1F914210CA8FFF7EDF91D48002542
:100F8000016841F080510160006800F080501190CC
:100F90001948016841F4804101600068022400F4AE
:100FA0008040119001200090000401908001CDE963
:100FB000064008AA0420A82182E813000B90684686
:100FC000FFF742FD08B172B6FEE70CA90F2081E8D9
:100FD00031004FF4A0500F904FF480501090052135
:100FE0000CA8FFF767FC002801D072B6FEE713B02B
:100FF00030BD0000403802400070004002480168E7
:1010000041F470010160704788ED00E0FEE70907D8
:10101000090E002804DB00F1E02080F8001470477E
:1010200000F00F0000F1E02080F8141D7047000070
:10103000FFF7BCFBFFF798FFFFF7D2FE064C0A2232
:1010400004492046FFF740FF0A2204492046FFF7E3
:1010500031FFFEE70000002000000E0838000020ED
:101060004FF04070E1EE100A7047000000000000F1
:101070000000010203040607080900009C10000894
:101080000000002038000000C4010008D41000084F
:1010900038000020A8060000E00100080000000061
:1010A0000100000002000000030000000400000036
:1010B0000500000006000000070000000800000016
:1010C0000900000001000000100000000000000006
:0410D0000024F40004
:040000050800018965
:00000001FF
