:020000040800F2
:10000000B80E0020CD010008330D0008110D0008C6
:10001000310D0008FB0200089B0D000800000000E5
:10002000000000000000000000000000370D000884
:10003000FD02000800000000350D0008390D000821
:10004000E7010008E7010008E7010008E7010008F0
:10005000E7010008E7010008E7010008E7010008E0
:10006000E7010008E7010008E7010008E7010008D0
:10007000E7010008E7010008E7010008E7010008C0
:10008000E7010008E7010008E7010008E7010008B0
:10009000E7010008E7010008E7010008E7010008A0
:1000A000E7010008E7010008E7010008E701000890
:1000B000E7010008E7010008E7010008E701000880
:1000C000E7010008E7010008E7010008E701000870
:1000D000E7010008E7010008E7010008E701000860
:1000E000E7010008E7010008E7010008E701000850
:1000F000E7010008E7010008E7010008E701000840
:10010000E7010008E7010008E7010008E70100082F
:10011000E7010008E7010008E7010008E70100081F
:10012000E7010008E7010008E7010008E70100080F
:1001300000F002F800F03AF80AA090E8000C8244BF
:100140008344AAF10107DA4501D100F02FF8AFF29C
:10015000090EBAE80F0013F0010F18BFFB1A43F0A5
:10016000010318479C0C0000BC0C0000103A24BF8F
:1001700078C878C1FAD8520724BF30C830C144BF0C
:1001800004680C607047000000230024002500264E
:10019000103A28BF78C1FBD8520728BF30C148BFEA
:1001A0000B6070471FB51FBD10B510BD00F06BF898
:1001B0001146FFF7F7FF00F001FE00F089F803B4E5
:1001C000FFF7F2FF03BC00F091F8000009488047F8
:1001D00009480047FEE7FEE7FEE7FEE7FEE7FEE729
:1001E000FEE7FEE7FEE7FEE704480549054A064B41
:1001F00070470000990D000831010008B808002080
:10020000B80E0020B80A0020B80A0020B2F120037E
:100210000AD5C2F1200320FA02F001FA03F321FA11
:1002200002F140EA0300704721FA03F04FF00001A9
:1002300070474FF0000200B51346944696462039A9
:1002400022BFA0E80C50A0E80C50B1F12001BFF48F
:10025000F7AF090728BFA0E80C5048BF0CC05DF8F5
:1002600004EB890028BF40F8042B08BF704748BF43
:1002700020F8022B11F0804F18BF00F8012B7047B7
:10028000704770477047754600F02CF8AE46050081
:100290006946534620F00700854618B020B5FFF7A1
:1002A000A3FFBDE820404FF000064FF000074FF0DD
:1002B00000084FF0000B21F00701AC46ACE8C00984
:1002C000ACE8C009ACE8C009ACE8C0098D4670478D
:1002D00010B50446AFF300802046BDE81040FFF79C
:1002E0006EBF0000004870475808002001491820E0
:1002F000ABBEFEE7260002007047FEE77047000035
:1003000010B500F0F1F903493420C860BDE8104091
:1003100000F0A0B90020024006490020C86106484C
:10032000016941F004010161016941F0400101618D
:10033000704700003800002000200240064A0021DB
:10034000D16106490A6942F002020A6148610869FE
:1003500040F0400008617047380000200020024053
:10036000044B0022DA61044A136943F0010313616C
:1003700001807047380000200020024070B513460D
:1003800029B1B0F1006F02D30C4CA04205D300207C
:1003900070BD40C81B1F40C101E0084D2D1F042B3C
:1003A00007D3A842F5D904E010F8015B01F8015B1E
:1003B0005B1E0BB1A042F7D3D01A70BD0000040839
:1003C00014480022C168CB06134904D5CA6942F01B
:1003D0000202CA611022C3685B0705D5CB6943F0EE
:1003E0000103CB6142F00402C369DB0707D0CB698C
:1003F00043F00403CB61C16921F00101C161A2F5A1
:100400008071013901D0C2607047C16921F00101DA
:10041000C1617047002002403800002070B50546D9
:1004200000F076F90646114C09E0681C07D025B1AA
:1004300000F06EF9801BA84201D9032070BDE0686E
:10044000C007F2D1E068800601D52020E060E068B6
:10045000C00605D4E069C00702D1E068400703D5B3
:10046000FFF7AEFF012070BD002070BD00200240EC
:100470002DE9F04F8346A0F10064394887B09146DA
:1004800015460E4684420CD25DB156B100F02CF9EF
:100490004FEAD42AC4F34907C7F58064A54256D968
:1004A00056E0002007B0BDE8F08F00BFBAF1800F22
:1004B00050D24FF0006000EBCA204FF4006229498F
:1004C0000590FFF75BFF274900204FF6FF7201EB15
:1004D000470804E038F81010914202D1401CA042B5
:1004E000F8D3A04220D2002700970598029001205F
:1004F00001900390049704A9684600F057F848BBA0
:1005000005E000BF36F8171028F817107F1CA74227
:10051000F8D34FF480673A461249059800F024F862
:10052000B84208D02D1A15E022463146584600F050
:100530001BF8A042F6D106EB44060BEB440B2D1B37
:1005400000274FF480640AF1010AA54200D22C462C
:10055000002DABD100F07EF8A9EB05004000A1E72B
:10056000FFFF0300580000202DE9F04188460546B2
:10057000164614460C4F11E0BD4211D8B8F80020C1
:1005800000232946012000F06FF82988B8F8000000
:10059000814205D1641E08F10208AD1C002CEBD18C
:1005A000301BBDE8F0810000FEFF03082DE9F04795
:1005B000054626480F460126017E01290FD001215C
:1005C000814601762868DFF888804CF25034022892
:1005D00008D0A2462046FFF721FFA8B131E0022053
:1005E000BDE8F0872046FFF719FF08BB0120FFF7A1
:1005F00093FE2046FFF712FFD8F81010064621F0B0
:100600000401C8F810101CE04FF0FF303860AC68EF
:1006100011E02046FFF792FE5046FFF7FFFED8F8A4
:100620001010060021F00201C8F8101001D03C6043
:1006300007E004F50064D5E9020100EBC120A04207
:10064000E7D8002189F818103046C9E738000020A3
:10065000002002400348016941F08001016100204F
:1006600070470000002002402DE9F05F07461C485B
:1006700088460024017E15461E46012909D0012125
:10068000814601764CF2503A5046FFF7C7FE18B14A
:1006900022E00220BDE8F09F012F02D0022F00D0FF
:1006A0000427D346DFF83CA0220128463146FFF755
:1006B000ADFD81B208EB4400FFF752FE5846FFF74C
:1006C000ADFEDAF8102022F00102CAF8102018B9A5
:1006D000641CE4B2BC42E7D3002289F81820D9E7B1
:1006E0003800002000200240064900200A69120656
:1006F00007D5054A4A60054A4A600969090600D5D6
:10070000012070470020024023016745AB89EFCDEF
:10071000014880687047000014000020024881688A
:10072000027811448160704714000020074810B51A
:10073000016841F010010160032000F067F80F200C
:1007400000F006F800F024F8002010BD0020024060
:1007500070B50D4D04464FF47A712878B1FBF0F076
:100760000A490968B1FBF0F000F0BEFA48B9102C54
:1007700007D200222146501E00F028F800206C60AD
:1007800070BD012070BD000014000020200000207A
:100790000C4808B5816941F001018161816901F06E
:1007A00001010091C16941F08051C161C06900F04F
:1007B000805000900448416821F0E06141F00071F0
:1007C000416008BD0010024000000140F0B40E4B33
:1007D0001B680C46C3F30223C3F10705042D00D99F
:1007E0000425191D072901D2002300E0DB1E012684
:1007F00006FA05F1491E214099409E40761E16409A
:100800003143F0BC00F0CABA0CED00E0064900F03C
:10081000070208684FF6FF03184040EA0220034A27
:1008200010430860704700000CED00E00000FA057E
:100830002DE9F0470F46050061D0434E306800F0C7
:100840000700B84209D2306820F007003843306012
:10085000306800F00700B84251D128683B4C81074E
:1008600012D5400703D5606840F4E06060602878E6
:10087000000703D5606840F4605060606068A96854
:1008800020F0F000084360602878C00728D068682E
:10089000012810D02168022810D0890700292EDAFB
:1008A000616821F0030101436160FFF731FF804679
:1008B00041F288390DE021688903EFE78901EDE70E
:1008C000FFF726FFA0EB0801494502D90320BDE848
:1008D000F0876068696800F00C00B0EB810FEFD121
:1008E000306800F00700B8420BD9306820F00700EC
:1008F00038433060306800F00700B84201D0012072
:10090000E5E72878400705D56068E96820F4E060ED
:10091000084360602878000706D56068296920F4DC
:10092000605040EAC100606000F018F86168084A51
:10093000C1F30311515CC8400649086006480068CD
:10094000FFF706FF0020C2E700200240001002402F
:10095000F00D0008200000201800002012A185B032
:100960000FC98DE80F0014A0144A00680490516864
:10097000134801F00C03042B10D0082B0ED1C1F347
:100980008343C9031DF803000AD5516804AAC1F3C3
:100990004041515C0A4A5043B0FBF1F005B070474A
:1009A00008494843FAE7000002030405060708095E
:1009B0000A0B0C0D0E0F1010010200000010024077
:1009C00000127A0000093D002DE9F84F040070D0B4
:1009D0002078C04DC00749D06868C0F38100012865
:1009E00007D06868C0F38100022809D16868C00395
:1009F00006D52868800339D560680028E7D035E03F
:100A00006068B0F5803F0BD010B1B0F5A02F11D0C9
:100A1000286820F480302860286820F4802002E0D4
:100A2000286840F480302860606890B1FFF770FE5D
:100A300006460AE0286840F480202860F0E700BFFE
:100A4000FFF766FE801B642873D828688003F7D5FB
:100A50000CE0FFF75DFE064605E000BFFFF758FE1D
:100A6000801B6428F0D828688003F7D420789A4E39
:100A700080074FF001094FF0000839D5686810F081
:100A80000C0F07D06868C0F38100022809D168689C
:100A9000C00306D42868800714D52069012808D12E
:100AA00010E02069B0B1C6F80090FFF731FE0746AC
:100AB00005E00AE1FFF72CFEC01B0228C4D8286815
:100AC0008007F7D52868616920F0F80040EAC10086
:100AD00028600DE0C6F80080FFF71AFE074604E024
:100AE000FFF716FEC01B022823D828688007F7D41A
:100AF000207800072CD57948A169D9B1C0F80090B9
:100B0000FFF706FE074604E0FFF702FEC01B0228BF
:100B10000FD8686A8007F7D571484FF4FA5100681A
:100B2000B0FBF1F0009000BF0098411E0091FAD296
:100B30000EE080E0C0F80080FFF7EAFD074604E021
:100B4000FFF7E6FDC01B022875D8686A8007F7D456
:100B50002078400760D5E8690027C00008D4E8691C
:100B600040F08050E861E869012700F08050009073
:100B70005C480168C90513D40168834641F480715B
:100B80000160FFF7C5FD824606E000BFFFF7C0FD2C
:100B9000A0EB0A0064284ED8DBF80000C005F5D5AC
:100BA000E06801280AD008B1052813D0286A20F08F
:100BB00001002862286A20F0040002E0286A40F060
:100BC00001002862E06841F2883B98B1FFF7A0FD80
:100BD00082460BE0286A40F004002862EEE700BF7E
:100BE000FFF796FDA0EB0A0159455AD8286A8007FD
:100BF000F6D50CE0FFF78CFD824605E0FFF788FD97
:100C0000A0EB0A0159454CD8286A8007F6D41FB1D9
:100C1000E86920F08050E861E06988B36968C1F351
:100C20008101022944D00228C6F8608004D0FFF771
:100C30006FFD044638E034E0FFF76AFD074604E044
:100C4000FFF766FDC01B02282BD828688001F7D467
:100C5000206AB0F5803F05D16868A16820F40030B3
:100C600008436860D4E908010843696821F47411F5
:100C700008436860C6F86090FFF74AFD044606E046
:100C800025E000BFFFF744FD001B022809D82868B3
:100C90008001F7D51BE000BFFFF73AFD001B0228DB
:100CA00002D90320BDE8F88F28688001F4D40EE053
:100CB0000128F7D06868226A00F48031914204D19B
:100CC000616A00F47010884201D00120EAE7002038
:100CD000E8E7000000100240000042428004424267
:100CE000200000200070004010B5401EB0F1807F51
:100CF00001D3012010BD4FF0E02460610F21601787
:100D000000F04CF80020A06107202061002010BDF9
:100D1000FEE70000054808B5816941F004018161E2
:100D2000806900F00400009008BD0000001002403F
:100D3000FEE7FEE770477047FFF7F0BC30B58FB0B5
:100D400028216846FFF775FA14210AA8FFF771FAFF
:100D500002250120049000951020059000244FF4F6
:100D60006010CDE9084007956846FFF72DFE08B1F1
:100D700072B6FEE70F20CDE90A054FF48060CDE999
:100D80000C4002210AA80E94FFF752FD002801D062
:100D900072B6FEE70FB030BD7047FEE70907090ED7
:100DA000002804DB00F1E02080F80014704700F018
:100DB0000F0000F1E02080F8141D7047FFF7B6FC2B
:100DC000FFF7BCFFFFF7A6FFFFF79AFA064C0A22CF
:100DD00004492046FFF74CFB142204492046FFF744
:100DE000CDFAFEE7000000200000030824000020E8
:100DF00000000000000000000102030406070809CB
:100E0000200E000800000020240000006C010008F3
:100E1000440E000824000020940E00008801000801
:100E2000010002000300040005000600070008009E
:100E300009000A000100000010000000000000008E
:040E40000024F40096
:0400000508000131BD
:00000001FF
